:100000000C94E2050C94FF050C94FF050C940E2F44
:100010000C94FF050C94FF050C94FF050C94FF0550
:100020000C94FF050C94FF050C944E2C0C94262D7B
:100030000C94B2160C94FF050C94FF050C94FF056C
:100040000C94FF050C94FF050C94FF050C94FF0520
:100050000C94FF050C942A2C0C94FF050C94FF05BE
:100060000C94FF050C94FF050C94FF050C94FF0500
:100070000C94FF050C94FF050C94FF050C94FF05F0
:100080000C94FF050C94FF050C94FF050C94FF05E0
:100090000C94FF050C94FF050C94FF050C94FF05D0
:1000A0000C94FF050C94FF050C94FF0500AF00AE07
:1000B0000000000000003E5B4F5B3E003E6B4F6B5C
:1000C0003E001C3E7C3E1C00183C7E3C18001C5729
:1000D0007D571C001C5E7F5E1C0000183C18000051
:1000E000FFE7C3E7FF00001824180000FFE7DBE785
:1000F000FF0030483A060E00262979292600407F65
:1001000005050700407F05253F005A3CE73C5A00A3
:100110007F3E1C1C0800081C1C3E7F0014227F220E
:1001200014005F5F005F5F0006097F017F000066CB
:1001300089956A0060606060600094A2FFA29400EC
:1001400008047E04080010207E20100008082A1CE5
:100150000800081C2A0808001E10101010000C1EB1
:100160000C1E0C0030383E383000060E3E0E0600E5
:1001700000000000000000005F0000000007000712
:100180000000147F147F1400242A7F2A12002313F6
:10019000086462003649562050000008070300003A
:1001A000001C224100000041221C00002A1C7F1C70
:1001B0002A0008083E080800008070300000080887
:1001C0000808080000006060000020100804020019
:1001D0003E5149453E0000427F4000007249494976
:1001E00046002141494D33001814127F1000274565
:1001F000454539003C4A4949310041211109070070
:10020000364949493600464949291E000000140074
:1002100000000040340000000008142241001414C3
:1002200014141400004122140800020159090600A8
:100230003E415D594E007C1211127C007F494949B4
:1002400036003E41414122007F4141413E007F490D
:10025000494941007F09090901003E4141517300AC
:100260007F0808087F0000417F4100002040413F97
:1002700001007F08142241007F40404040007F027F
:100280001C027F007F0408107F003E4141413E0078
:100290007F09090906003E4151215E007F091929A5
:1002A000460026494949320003017F0103003F40CF
:1002B00040403F001F2040201F003F4038403F008B
:1002C0006314081463000304780403006159494D62
:1002D0004300007F4141410002040810200000411A
:1002E00041417F00040201020400404040404000C0
:1002F0000003070800002054547840007F2844443D
:100300003800384444442800384444287F00385496
:100310005454180000087E0902001824241C780098
:100320007F080404780000447D4000002040403DE8
:1003300000007F102844000000417F4000007C0442
:10034000780478007C080404780038444444380079
:100350007C1824241800182424187C007C08040429
:10036000080048545454240004043F4424003C40F2
:1003700040207C001C2040201C003C4030403C00C1
:100380004428102844004C9090907C004464544CC5
:1003900044000008364100000000770000000041E2
:1003A000360800000201020402003C2623263C001D
:1003B000000000000000000000000000000000003D
:1003C000C0E0F0F8F81800C0F0FCFEFFFFFFFFFFF0
:1003D000FFFF7E00000000000000000080C0E0E0A1
:1003E000E0E0E0E0E0E0C0800000000080C0E0E08D
:1003F000E0E0E0E0E0E0C080000000E0E0C0C0E05D
:10040000E0E0E00000E0E0C0C0E0E0E0E0E0C0806C
:100410000000000080C0E0E0E0E0E0E0E0E0C0805C
:100420000000000000000000000000000000E0F0FC
:10043000F0F0E0ECEEF7F37020007C7C7C7E007E38
:100440007E7E7F7F7F000080C0E07E5B4F5BFEC0D2
:100450000000C000DCD7DEDEDED7DC00C00000001C
:10046000000000000000000000000000000000008C
:10047000000000000000000000F8FCFEFFE000FFAC
:10048000FFFFFFFFFF80FFFFFFFFFFFFFFFFFF1FDB
:100490000701000000000000000000FFFFFF8100D6
:1004A000000000000081C3C3C30000FFFFFF810004
:1004B000000000000081FFFFFF0000FFFFFF0100C0
:1004C0000000000000FFFFFF010000000001FFFF2F
:1004D000FF0000FFFFFF9D1C1C1C1C1C1C9DDFDF80
:1004E000DF000000000000000000000000000F1FFF
:1004F0003F7F7F7F7F7F3F1E0C001F1F1F3F003FFE
:100500003F3F7F7F7F00307B7F7830202030787FB7
:100510003B0003000F7F0F0F0F7F0F000300000051
:1005200000000000000000000000000000000000CB
:10053000000000000000000000030F1F3F3F3F3F8E
:100540001F1F3F3F7F7F7F3F3F1F3F7F7F7F7F7C1E
:100550007878381C0F000000000000000103070736
:10056000070707070707030100000000010307074B
:100570000707070707070301000000070707000038
:100580000000000000070707000000000000070748
:100590000700000001030707070707070707030114
:1005A000000000000000000000000000000000004B
:1005B000000000000000000000000000000000003B
:1005C000000000000000000000000000000000002B
:1005D000000000000000000000000000000000001B
:1005E000000000000000000000000000000000000B
:1005F00005010902A10185020901A10005091901EE
:1006000029081500250195087501810205010930A9
:1006100009311581257F95027508810609381581F4
:10062000257F950175088106050C0A38021581257C
:100630007F950175088106C0C005010980A101856B
:100640000319012AB700150126B70095017510811D
:1006500000C0050C0901A101850419012AA0021599
:100660000126A002950175108100C005010906A1AF
:10067000018506050719E029E7150025019508758C
:100680000181020507190029EF1500250195F07574
:100690000181020508190129059505750191029549
:1006A0000175039101C005010906A101050719E0C3
:1006B00029E7150025019508750181029501750846
:1006C00081010507190029FF150026FF0095067511
:1006D00008810005081901290515002501950575F2
:1006E000019102950175039101C009023B000201CD
:1006F00000A0FA0904000001030101000921110111
:1007000000012244000705810308000109040100DB
:10071000010300000009211101000122B6000705B4
:10072000820320000112010002000000085346016C
:10073000000100010200010C0343006F0072006E13
:100740000065000000100366006F006F0073007406
:100750000061006E000000040309042223252628FE
:10076000292A2C2D2F3032333536383A3B3D3E4046
:1007700042434547494A4C4E5051535557595A5C8C
:100780005E6062646668696B6D6F71737577797BA3
:100790007D7F81838587898A8C8E90929496989AA2
:1007A0009C9E9FA1A3A5A7A8AAACAEAFB1B3B4B6B7
:1007B000B8B9BBBCBEBFC1C2C3C5C6C7C9CACBCC12
:1007C000CDCED0D1D2D2D3D4D5D6D7D7D8D9D9DAE5
:1007D000DADBDBDBDCDCDCDCDCDDDDDDDDDCDCDC5A
:1007E000DCDCDBDBDBDADAD9D9D8D7D7D6D5D4D382
:1007F000D2D2D1D0CECDCCCBCAC9C7C6C5C3C2C157
:10080000BFBEBCBBB9B8B6B4B3B1AFAEACAAA8A7B3
:10081000A5A3A19F9E9C9A98969492908E8C8A896B
:10082000878583817F7D7B79777573716F6D6B6948
:1008300068666462605E5C5A5957555351504E4C1D
:100840004A4947454342403E3D3B3A3836353332CC
:10085000302F2D2C2A292826252322FFAA7F554018
:100860000001010101010101010102020202020273
:100870000202020303030303030303040404040446
:10088000040405050505050606060606070707070D
:100890000708080808090909090A0A0A0B0B0B0CC2
:1008A0000C0C0D0D0D0E0E0E0F0F0F10101111115F
:1008B00012121313141415151616171718181919E0
:1008C0001A1A1B1B1C1D1D1E1E1F20202122222345
:1008D0002424252626272829292A2B2C2D2D2E2F86
:1008E00030313232333435363738393A3B3C3D3E9D
:1008F0003F404142434445464748494A4C4D4E4F8C
:1009000050515354555658595A5B5D5E5F6162644D
:10091000656668696B6C6D6F7072737577787A7BDA
:100920007D7E8082838587888A8C8E8F9193959631
:10093000989A9C9EA0A2A3A5A7A9ABADAFB1B3B551
:10094000B7BABCBEC0C2C4C6C9CBCDCFD1D4D6D82D
:10095000DBDDDFE2E4E7E9EBEEF0F3F5F8FAFDFFCB
:1009600000DA028178D9F1DB20A4A62EAF00A0C066
:10097000D30000A1C8D30000AED580A81F408D14BD
:1009800020001E0F0500047F3F1F643214643214E0
:10099000783C1E1E140A05808182838485868788A0
:1009A000898A8B8C8D8E8F9091929394A0A1A2A313
:1009B000A4A5A6A7A8A9AAABACADAEAFB0B1B2B37F
:1009C000B4C0C1C2C3C4C5C6C7C8C9CACBCCCDCECA
:1009D000CFD0D1D2D3D4003A002C206B0078005570
:1009E0006E6465660041646A757374005261697370
:1009F00065004C6F7765720044656661756C7400C4
:100A00004C617965723A20002B0014001A0008002E
:100A100015001700E00004001600070009000A0096
:100A2000E1001D001B000600190005000000000089
:100A30000000E30021522C002A00130012000C00D9
:100A400018001C00340033000F000E000D000B00D6
:100A500029003800370036001000110000000000A7
:100A60000000E600225228002B001E001F0020007C
:100A700021002200E0000000000000000000000053
:100A8000E100000000000000000000000000000085
:100A90000000E30001002C002A00270026002500AA
:100AA00024002300000000004F00520051005000BD
:100AB0000000000000000000000000000000000036
:100AC0000000E600235228002B001E021F02200215
:100AD00021022202E00000000000000000000000EF
:100AE000E100000000000000000000000000000025
:100AF0000000E30023522C002A00270226022502D0
:100B0000240223023500310030002F002E002D007A
:100B10003502310230022F022E022D0200000000A9
:100B20000000E60001002800007C0000000000003A
:100B30000000000020782378257827780000000046
:100B40002178247826782878000000000000000032
:100B50000000E30001002C00000000000000000085
:100B60000000000000000000000000000000000085
:100B70000000000000000000000000000000000075
:100B80000000E6000100280020202020616263644C
:100B900065666768696A6B6C6D6E6F70717273748D
:100BA00075767778797A313233343536373839306B
:100BB000524542545F2D3D5B5D5C233B27602C2EEC
:100BC0002F20202011241FBECFEFDAE0DEBFCDBFE3
:100BD00027E0A2ECB1E001C01D92A630B207E1F718
:100BE00011E0A0E0B1E0E0E3F5E602C005900D926F
:100BF000A23CB107D9F70E945E250C9430320C94C8
:100C000000009093BE068093BD0608959093C006A1
:100C10008093BF06089521E030E002C0220F331F09
:100C20008A95E2F78091BF069091C006822B932BA4
:100C30000E940606089521E030E002C0220F331F13
:100C40008A95E2F7209530958091BF069091C00675
:100C5000822393230E9406060895983098F58630E3
:100C600088F5E82FF0E086E0989FE00DF11D112453
:100C70008E2F877041E001C0440F8A95EAF783E028
:100C8000F695E7958A95E1F7EE0FFF1FEE0FFF1F30
:100C9000E857F94F20E030E070E05191DF01119703
:100CA000CB01022E02C0969587950A94E2F78170D7
:100CB00081958527842385278C932F5F3F4F243090
:100CC000310559F70895983078F5863068F5E82FA2
:100CD000F0E086E0989FE00DF11D11249E2F9770A3
:100CE00083E0F695E7958A95E1F7EE0FFF1FEE0F8B
:100CF000FF1FE857F94F40E050E080E0219130E0DD
:100D0000092E02C0369527950A94E2F72170332701
:100D1000042E01C0220F0A94EAF7822B4F5F5F4F27
:100D20004430510559F7089580E008958091C60632
:100D30009091C506981301C008958F5F8770FACF10
:100D40009091C106809589238093C106282F277032
:100D500021110DC0891759F09091C30692FF07C069
:100D60008695869586950E941B061092C106089569
:100D70008091BA069091C406892B5091BB065523E9
:100D8000C1F090914B019923A9F09091C20697FF71
:100D900011C09DE12EEC31E040E0F90160812F5F50
:100DA0003F4F61114F5F9150C0F741111092BB0648
:100DB000852B089595E026EC31E0EECF982F9095A5
:100DC0008091BA0689238093BA0608957830B8F4E2
:100DD0006630A8F48430B0F4E62FF0E096E0799F16
:100DE000E00DF11D112490E3899FE00DF11D112408
:100DF000EE0FFF1FE85FF54F85919491089580E015
:100E000090E0089581E0FCCF803E9105D1F1C8F4D7
:100E10008133910509F47FC048F48932910509F4C2
:100E20006FC08A32910509F47DC008958933910518
:100E3000E1F082389105C9F08533910509F45BC072
:100E40000895843E9105D1F148F4823E910531F137
:100E5000833E910541F181EE90E00895863E910533
:100E6000C1F1873E9105E1F108952091C2062370FA
:100E7000211165C02091C30623FF14C089E290E0D0
:100E800008952091C20620FD43C03091C30630FF73
:100E900009C024FF4EC080E090E008952091C20672
:100EA00022FDF7CF08952091C20622FD45C0309162
:100EB000C30630FD44C024FFF5CFEDCF2091C3061B
:100EC00021FFF0CF8091C20684FDE5CF87EE90E050
:100ED00008952091C20623FFE5CF24FDDCCFF6CF95
:100EE0002091C20623FD2EC03091C30631FFE3CF0F
:100EF00084EE90E008952091C20625FFD3CFBECFA7
:100F00002091C20625FD21C02091C30623FFCACF30
:100F100089E390E008952091C20626FFC3CF8AE2BC
:100F200090E008952091C20626FFBCCF81E390E0B7
:100F3000089583EE90E0089582EE90E0089580EEAB
:100F400090E0089586EE90E0089585E390E0AACFC2
:100F50009091C20692FF10C041E0282F24712430E6
:100F600009F040E031E0282F2871283009F030E006
:100F7000431711F02CE0822793FF10C041E0282F87
:100F80002471243109F040E031E0282F2871283104
:100F900009F030E0431711F02CE082273091C306AE
:100FA00030FF10C051E0282F2171213009F050E0AE
:100FB00041E0282F2871283009F040E0541711F043
:100FC00029E0822731FF10C041E0282F2171213113
:100FD00009F040E031E0282F2871283109F030E095
:100FE000431711F029E0822794FD877E08951F930F
:100FF000CF93DF930E940407EC01811522E592074D
:1010000008F053C0811540E5940708F0DDC0803E2C
:101010009105F8F48D3C910508F0AEC0883A910531
:1010200080F4853A910508F099C08130910521F04E
:101030000497813A910550F4CE01DF91CF911F9131
:101040000895885A91094B9708F48BC0C0E0D0E00E
:10105000F3CF811550E49507F8F4C11580E2D80765
:1010600008F0CBC0C83ED10538F3CE019A95811562
:101070009F4160F78D2F0E94A807182FCE01992756
:101080000E940407212F30E0322F2227E901CC27CC
:10109000DF71C82BD92BD0CF99270E940407CC270A
:1010A000DF70C82BD92BD06AC7CF803842E59407B0
:1010B000C8F5803652E5950708F067C0C03482E570
:1010C000D807B0F08C2F86958695877020E2829F96
:1010D000C0011124C37021E030E0A90102C0440F17
:1010E000551FCA95E2F7EA01C82BD92BDC68A4CFBB
:1010F000C03252E5D50708F041C08C2F8695869501
:1011000020E2829FC0011124C37021E030E0A901D8
:1011100002C0440F551FCA95E2F7EA01C82BD92B2C
:10112000DD688ACF803C52E5950760F48F71C03A44
:10113000D24508F03FC090E0982F8827EC01C46F9B
:10114000D06A7ACF805C9245809708F07FCFDC2F01
:10115000CC27CC27DF71C06FD06A6ECFA497D06444
:101160006BCFC85AD0E0CC0FDD1FC457DE4F0990BB
:10117000D881C02DD46460CFD0655ECFCF71D0E070
:10118000DC2FCC27C16FD06A57CF869586958770A4
:1011900020E2829FC0011124C37021E030E0A90148
:1011A00002C0440F551FCA95E2F7EA01C82BD92B9C
:1011B000DA6842CF0E94A807C82FD0E0DC2FCC27E6
:1011C000CC27DF71D06238CF8F710E94A80765E00D
:1011D000D695C7956A95E1F7CF70D0E0DC2FCC2784
:1011E000282F30E084FF05C054E0220F331F5A95AA
:1011F000E1F7C22BD32BD0691FCF8D2F8F710E94A7
:10120000A807182FCE0199270E940407212F30E04C
:10121000322F222722273F71282B392BE901D2CFE9
:10122000A0E0B0E0E6E1F9E00C9446308C01E090FB
:10123000BF06F090C0068091BD069091BE06E82AD8
:10124000F92ACFE0D0E0CC24C394D12CC6010C2ED7
:1012500002C0880F991F0A94E2F78E219F21892BE3
:1012600049F4219798F7B12C8B2DCDB7DEB7E9E083
:101270000C946230BC2EB8018C2F0E94E6060E94AE
:10128000F707019771F3F0CF0F931F93CF93FC01F2
:10129000858100811181882391F0662381F0C80146
:1012A0000E941009C82F682FC8010E942D06B8019E
:1012B0008C2F0E94E606CF911F910F910895C801CF
:1012C0000E946306C82FF3CFCF93DF93D82FC92F87
:1012D0000E9410096D2F7C2F0E94E6060E94F707DE
:1012E000DF91CF910895FC0184818823A1F0808152
:1012F00091810E946409282F92959F70963091F0F9
:1013000060F4925F9F70923030F481E0203F79F07A
:1013100030F4283E30F080E004C09A5FF3CF243FE1
:10132000D1F7089581E0283E18F0213FF9CF0895C4
:10133000089580E00895F894E82FE295EF70F0E0CA
:1013400041A18F7021E030E0B90102C0660F771F24
:101350008A95E2F7CB01962F9095942391A392A1C1
:10136000892B82A3789408950895A0E0B0E0EBEB78
:10137000F9E00C944530E901493708F048E7E42FDB
:10138000F0E0E05AF74F61110BC0E4919E2F8E2FD1
:101390008983E8839A83CDB7DEB7EAE00C946130A5
:1013A000282F30E0062F10E0F491EF2F86E0829F87
:1013B0006001839FD00C1124EE24EA94F12CC60125
:1013C000B7010E942930220F331F45E5469FC00117
:1013D000479F900D1124281B390B822F880F280F4F
:1013E000C701801B910BF89FA001F99F500D11249C
:1013F000952F209F5001219FB00C1124AB2CBB24B2
:10140000D701AA19BB095D01FA9DD001FB9DB00D62
:1014100011248B2F5701A21AB1089501209F50016A
:10142000219FB00C309FB00C1124AB2CBB24EA18C8
:10143000FB08FE9D9001FF9D300D11246330710566
:10144000C9F01CEFC11613E0D10650F461307105EC
:1014500009F49ECF6230710589F08E2FE32F98CF6B
:101460006430710571F066307105B9F3E52F9B2F7B
:101470008F2F8ECFEB2F852F9F2F8ACF852F932FE6
:1014800087CF832FE52FF8CF8091B206843060F4A8
:10149000837084608093B2068091B506893718F016
:1014A00088E78093B50608958C3AB0F38370886A14
:1014B000F1CFEFEAF6E011828281846082830895A1
:1014C000FA01882311F009950895FB01FCCF282F1C
:1014D00035EB2303C001112497FF04C08058910904
:1014E000892F089580589F4FFBCF8091A20680FDE1
:1014F00014C081FD14C082FD16C08091A10688230E
:1015000081F08E3180F420E5829FC00111246EE1CC
:1015100070E00E948E30862F089584E1089588E25D
:10152000089588E0089580E508958091A20680FDE1
:1015300017C081FD17C082FD19C08091A0068823C5
:1015400099F0883298F428E0829FC001112468E263
:1015500070E00E948E306115710551F0862F08955C
:1015600062E0FCCF64E0FACF61E0F8CF68E0F6CF4C
:1015700081E0089580915A06882359F0E0917E0613
:10158000F0917F06309729F00190F081E02D0995C8
:10159000089580E00895A3E0B0E0E1EDFAE00C9456
:1015A0004D309C018091160290911702821793078B
:1015B000A1F03093170220931602E0917E06F0917D
:1015C0007F06309751F083E089833B832A83008430
:1015D000F185E02DCE01019609952396E2E00C9469
:1015E0006930A3E0B0E0E7EFFAE00C944D309C01E5
:1015F000809114029091150282179307A1F0309305
:10160000150220931402E0917E06F0917F06309738
:1016100051F084E089833B832A830084F185E02DA7
:10162000CE01019609952396E2E00C9469309091E1
:101630004B019923C1F09091C20697FF14C0E82F87
:10164000E695E695E695803FF8F4F0E0E453FE4F2A
:10165000877021E030E001C0220F8A95EAF782818D
:10166000822B82830895A6ECB1E0EFEF90E02D91FC
:10167000821751F0EF3F19F4211101C0E92F9F5F4C
:101680009630A9F7EF3F09F408950E2E000CFF0BDA
:10169000EC53FE4FE6CF90914B019923E1F09091EE
:1016A000C20697FF18C0E82FE695E695E695803FBD
:1016B000F0F4F0E0E453FE4F877021E030E0A90140
:1016C00002C0440F551F8A95E2F7CA0180959281A6
:1016D000892382830895E6ECF1E09191891303C098
:1016E000DF0111971C9251E0EC3CF507B1F708952A
:1016F000A4E0B0E0EEE7FBE00C944D308FB7F89437
:1017000020913606309137064091380650913906BF
:1017100029833A834B835C838FBF69817A818B8174
:101720009C812496E2E00C946930A4E0B0E0EBE9FF
:10173000FBE00C944D3080915A06882371F00E9492
:10174000780B69837A838B839C8369817A818B810F
:101750009C812496E2E00C9469300E94780B6983A6
:101760007A838B839C838091560690915706A09133
:101770005806B091590629813A814B815C81280F26
:10178000391F4A1F5B1F29833A834B835C83DDCF5C
:1017900087E797E7909301088093000888E19AE033
:1017A0000FB6F894A895809360000FBE90936000E8
:1017B000FFCF809113020895FC019B0180910902E3
:1017C00090910A028617970740F0672B29F48091C1
:1017D000E8008E778093E800C90140E0009741F46B
:1017E000411106C08091E80082FF2FC080E008957B
:1017F0002091D8032223A9F12530A9F12091E800F6
:1018000023FD2DC02091E80022FDECCF2091E800BF
:1018100020FFE4CF3091F3002091F200009719F0FF
:101820002830310558F041E02830310509F040E01A
:101830002091E8002E772093E800D0CF419140938B
:10184000F10001972F5F3F4FE9CF8091D8038823A4
:1018500041F0853041F08091E80083FFC3CF81E003
:10186000089582E0089583E008958091030287FF40
:1018700013C08091E80082FF06C08091E8008B775A
:101880008093E80004C08091D8038111F2CF0895BD
:101890008091D8038823D9F38091E80080FFF8CFA6
:1018A0008091E8008E77ECCF2091E4003091E50044
:1018B00095E6A9018091EC008170882331F0809138
:1018C000E80080FF06C080E008952091E80022FD36
:1018D0001BC08091D803882391F0853091F08091CE
:1018E000EB0085FD10C02091E4003091E500421727
:1018F000530701F391509111DCCF84E0089582E009
:10190000089583E0089581E00895E8EDF0E0808196
:101910008E7F80831092E2001092DA001092E10034
:10192000A0EEB0E08C9181608C9380818F77808372
:1019300019BCA7EDB0E08C918E7F8C9380818F7E57
:101940008083109202020895FC01AC014C5F5F4F4E
:101950008FEF91E32191822728E030E087FF0BC0D1
:10196000880F89272150310921153105B9F7E4176E
:10197000F50781F70895880FF5CF982FE42FE270CF
:101980009093E900891308C0762F242F50E0E111CD
:1019900011C091E0980FF4CF7091EC002091ED0010
:1019A0005091F00021FD06C09F5F973049F780936A
:1019B000E90008953091EB003E7F3093EB003091C9
:1019C000ED003D7F3093ED003091EB0031603093BE
:1019D000EB007093EC002093ED005093F000209109
:1019E000EE0027FDE1CF0895A0E0B0E0EAEFFCE0D3
:1019F0000C944730C8EDD0E088818F7E8883E7ED76
:101A0000F0E080818160808384E082BF81E0809308
:101A1000020288818E7F888302EE10E0F801108236
:101A20001092DA0081EEC82ED12CF6011082888146
:101A30008F77888388818068888388818F7D888379
:101A400019BC1092D803109201021092D703109281
:101A5000000290EEE92EF12CF70180818B7F8083CC
:101A600088818160888342E060E080E00E94BD0C54
:101A7000F60180818E7F8083F80180818160808380
:101A8000808188608083F70180818E7F8083888158
:101A900080618883CDB7DEB7E8E00C946330E091D5
:101AA000C6069091C50627E0E91302C080E00895BC
:101AB000AE2FB0E02E9FF0011124E953F94F318190
:101AC000361306C03081381303C03581341304C087
:101AD000FD013196E770E8CF81E008954091130150
:101AE0008091B20680FF24C02091120130E0C9012C
:101AF000880F991F820F931F875D9C4F539A6BB17C
:101B0000677F7BB17860EFB7F89450E09A01220FBD
:101B1000331F240F351F280F391F28173907E9F401
:101B2000EFBF8FE594E00197F1F700C00000089542
:101B30008091140190911501282F30E0F901EE0FEA
:101B4000FF1FE20FF31FE75DFC4F891768F6118254
:101B5000108212828F5F3396F8CFDC014D91CD0158
:101B600058E07BB9000000C047FF6BB9440F00008C
:101B700000C000C000C06BB900C05A9591F7CDCF2E
:101B8000EF92FF921F93CF93DF93EC0110E0EE24CE
:101B9000EA94F12C60911601161770F00E946E0DF8
:101BA0009A818C8190FF25C08F5F8C83DF91CF91CC
:101BB0001F91FF90EF90089580911401810F992754
:101BC000991F9C01220F331F280F391F275D3C4F9F
:101BD00070E0C7010E948E30962F8C814091B5062F
:101BE0006091B406199F800D11240E94B5091F5FF2
:101BF000D1CF8150DACFA0E0B0E0E1E0FEE00C947C
:101C00004430EC01A09016018C819A8190FD0DC0AA
:101C1000BB24B39481110DC08FEF8A0DBB24B39404
:101C20008093280381E08C8304C0BB24BA9488236A
:101C3000B9F3E12CF12CEA14B8F00E946E0D9091EA
:101C40002803E1E0BE1254C080911601815099230F
:101C500019F08FEF890F91E0809328039C83CDB713
:101C6000DEB7EBE00C946030809114018E0D9F2D57
:101C7000911D8C01000F111F080F191F075D1C4FCC
:101C8000F80111821082128234E0C32ED12C912CE3
:101C900080912803890D87333CF166E30E948030F0
:101CA000892F082E000C990B8E159F0591F48091B9
:101CB000B5068C9DA0018D9D500D1124559547951D
:101CC0005595479598016091B4068091B3060E949E
:101CD000B5099B0CF1E0CF1AD108C114D104C1F6AB
:101CE0008FEFE81AF80AA7CF87FFDBCF8A0DD9CF8D
:101CF000892F90E001966091160170E00E948E306D
:101D0000982FAACF0F931F93CF93DF93EC018C8171
:101D1000811109C081E08C831092270392E0909397
:101D20000601809305011091140120911501812F66
:101D300090E0FC01EE0FFF1FE80FF91FE75DFC4F7D
:101D4000821750F100E060911601061758F10E94C9
:101D50006E0D8091050120912703280F2093270302
:101D600090910601980F90930601191654F4022ED3
:101D7000000C330B409116014150550B24173507C9
:101D800034F0819580930501813009F41C82DF9144
:101D9000CF911F910F9108951182108212828F5F4F
:101DA0003396CECF202F30E070E0C9010E948E30F4
:101DB000810F90E040912703042E000C550BFC018D
:101DC000EE0FFF1FE80FF91F24173507ACF0409105
:101DD0000601042E000C550B421753076CF09F01AF
:101DE000275D3C4F4091B5066091B4068091B306E3
:101DF0000E94B5090F5FA7CFE75DFC4F11821082EB
:101E00001282F8CFAEE0B0E0E8E0FFE00C94493099
:101E10008D879E87AD85BE8514961C91212F30E05D
:101E2000D9010E9421329B01AC010E94EC316983EF
:101E30007A838B839C83E0E2F0E0E11BF109A5E566
:101E4000B0E09B01AC010E94EC3169877A878B87F7
:101E50009C879F01DF010E94A8309B01AC010E947A
:101E6000F7316D837E838F8398879B01AC018981D5
:101E70009A81AB81BC81280F391F4A1F5B1F69857E
:101E80007A858B859C850E94FF31022F30E00A32D3
:101E900048F5A901440F551F420F531F559547950B
:101EA000142F1095F12C85E5E82EE01A809116018B
:101EB000F81630F10E946E0DAD85BE8514969C918A
:101EC00081E0992319F0903219F48FEF8093040187
:101ED00080910401890FED85FE8584832E96E6E0CE
:101EE0000C94653085E590E0821B930BAC01440FA8
:101EF000551F480F591F57FFD1CF4F5F5F4FCECFB0
:101F00008E2DF1FC802F409114014F0D5527551F48
:101F10009A01220F331F240F351F275D3C4F412F9D
:101F20006091B4060E94B509F394C0CF0F931F933C
:101F3000CF93DF93EC0100E010E040911601842F75
:101F400090E0081719076CF00E946E0D8C8190E0EC
:101F50000196817099278C83DF91CF911F910F910A
:101F6000089580911401800F912F911D9C01220FE3
:101F7000331F280F391F275D3C4F9C816091B406A9
:101F80008091B306469550E0041715074CF4992349
:101F900049F04091B5060E94B5090F5F1F4FCDCFA4
:101FA0009923B9F340E0F7CF9091B20690FF11C0AA
:101FB0009091140150911501292F30E0F901EE0F95
:101FC000FF1FE20FF31FE75DFC4F951718F00E940B
:101FD0006E0D08958183608342839F5F3396F5CFB2
:101FE000A3E0B0E0E6EFFFE00C944B308C01809171
:101FF000260381110AC09E012F5F3F4F48E76FEF14
:102000000E94B5098A8180932603F80164816130BA
:1020100049F06230D1F08091260340E0662331F030
:1020200040E015C06091260340E080E00E94D40F9C
:10203000F801848190E0019663E070E00E948E30A8
:1020400084832396E4E00C9467304091260380E07B
:1020500060E0ECCFA3E0B0E0E0E3F0E10C944D30C1
:102060009091B20690FF0AC09E012F5F3F4F0E94E1
:10207000B5094B8169818A810E94D40F2396E2E0E1
:102080000C946930CF93DF93EC01EC81F0E0E55ADA
:10209000F84F4491E2EBF6E0628181810E942A10C0
:1020A0008C818F5F8C83DF91CF910895CF93DF93E5
:1020B000EC01E2EBF6E0438162818C810E942A1000
:1020C0008C818F5F8C83DF91CF9108950F931F9345
:1020D000CF93DF93EB018A019091D803943079F587
:1020E0008093E9008FEF9091E80095FD07C095ED92
:1020F0009A95F1F7000081508111F5CF8091E800A9
:1021000085FF1DC00E94540C811114C08091E8000D
:1021100085FD06C08091E8008E778093E800F2CFBD
:1021200088818093F100015011090115110511F00A
:102130002196ECCF8091E8008E778093E800DF91C4
:10214000CF911F910F910895CF93DF93D82FC92F6F
:1021500048E050E0682F792F81E00E94661088E007
:10216000ED2FFC2FABE0B2E001900D928A95E1F7E4
:10217000DF91CF910895BC0140E250E082E00E94DF
:1021800066100895BC0146E050E082E00E946610AF
:102190000895BC0143E050E082E00E94661008957B
:1021A000A0E0B0E0E6EDF0E10C944530F82EE92E29
:1021B000B62EA72E8A018091FE01CC24C394D12C87
:1021C0008A3018F48AE0C82ED12CC1E0D0E06B2D03
:1021D0007A2D8F2D9E2DF8010995811116C021961B
:1021E000CC16DD0694F0CC9FC001CD9F900D900DD4
:1021F000112420E030E045E34A95F1F700002F5F1D
:102200003F4F28173907B9F7E2CFCDB7DEB7EAE07D
:102210000C9461309091C30692FB222720F9281775
:1022200079F080FB92F99093C3066091C206709199
:10223000C30684E090E00E94B73182E00E94A006CD
:10224000089580914B01882359F18091C20687FF40
:1022500027C00E94B8068093CD0140E250E06EE5B1
:1022600076E08CEC91E00E945F31892BC1F080E236
:10227000ECECF1E0AEE5B6E001900D928A95E1F765
:10228000E0917E06F0917F06309749F086E08093DA
:10229000CC010480F581E02D8CEC91E00995089546
:1022A0000E94B8068093C40148E050E060E876E000
:1022B00084EC91E00E945F31892B89F388E0E4ECA3
:1022C000F1E0A0E8B6E001900D928A95E1F7E09187
:1022D0007E06F0917F06309711F30280F381E02DA6
:1022E00084EC91E0DBCF882339F09091BA06892BFA
:1022F0008093BA060E9421110895882321F00E943C
:10230000DE060E9421110895A0E0B0E0EAE8F1E1C4
:102310000C9447308901D42FC52F6B017C010E949A
:10232000440AA8016D2F7C2F88E090E00E94AB3119
:1023300098014D2F5C2FB601C70100E20E94D230F8
:10234000622F84E290E00E949931CDB7DEB7E8E0D9
:102350000C946330E2EBF6E085E0808311828FEF2E
:10236000828388E783831482AFEAB6E012968C9169
:102370001297836012968C93758125E030E04FEFC1
:1023800058E760E0868197810E94841108958091CA
:10239000B606833018F48F5F8093B6062091B2069C
:1023A0003091B3064091B4065091B5066091B606DF
:1023B0007091B7068091B8069091B9060E94841179
:1023C00008958091B606882319F081508093B6064F
:1023D0002091B2063091B3064091B4065091B506F3
:1023E0006091B6067091B7068091B8069091B906D3
:1023F0000E9484110895A3E0B0E0E1E0F2E10C94C2
:102400004530F82ED62EE42EB22E9091B20690FFD3
:1024100042C03091B306381308C08091B4068613C9
:1024200004C08091B506841729F08091B1068260BE
:102430008093B106E92FE695E695AE2FB0E0A35B59
:10244000BE4F8C918093AF069C7F943041F59E01E6
:102450002F5F3F4F4E2D6D2D8F2D0E94B5094B8163
:1024600069818A810E94D40F3F2D3093B306D092A8
:10247000B406E092B506BB2071F02091B2066091DF
:10248000B6067091B7064D2D5E2D8091B8069091DD
:10249000B9060E9484112396EAE00C9461308230E0
:1024A00019F4E090B506E0CF8630F9F28930E9F210
:1024B0008931D1F6E9518E2F8170A82EE695F0E092
:1024C000E55AF74FE491C12C0E2F10E060911601F0
:1024D000C61618F00E946E0DC7CF2C2D30E0C09E9E
:1024E000C001C19E900D112470E00E9429308F2DF3
:1024F000A11013C0860F90911401A901490F511D1D
:102500009A01220F331F240F351F275D3C4F4E2D9C
:102510006D2D0E94B509C394D9CF861BECCFE2EB99
:10252000F6E0818121E043816281865F0E94FB1198
:102530000895E2EBF6E0818121E0438162818A50D7
:102540000E94FB110895E2EBF6E0628121E1620F47
:1025500008F46FEF21E0438181810E94FB1108950F
:10256000E2EBF6E0628121E1621B08F460E021E029
:10257000438181810E94FB110895E2EBF6E04381E3
:1025800021E1420F08F44FEF21E0628181810E9436
:10259000FB110895E2EBF6E0438121E1421B08F4D0
:1025A00040E021E0628181810E94FB110895A8E052
:1025B000B0E0EDEDF2E10C944D3066EE7EEF80E0A0
:1025C00090E00E94B73160E082E090E00E94993193
:1025D00081E090E09093BE068093BD0661E083E0C9
:1025E00090E00E94993160E074E184E090E00E9404
:1025F000B73160E086E090E00E9499316FEF87E0AC
:1026000090E00E94993140E050E0BA0188E090E00B
:102610000E94AB3160E084E290E00E94993160E07A
:1026200087E190E00E94993160E08CE090E00E94A8
:10263000993160E08DE090E00E94993119821A8210
:102640001B821C821D821E821F82188648E050E079
:1026500068E170E0CE0101960E94893140E050E0CF
:10266000BA0180E290E00E94AB3140E050E0BA0154
:102670008FE090E00E94AB3140E050E0BA0183E18E
:1026800090E00E94AB312896E2E00C946930A8E01B
:10269000B0E0EDE4F3E10C944C30409132065091FF
:1026A000330660913406709135062FB7F894809107
:1026B000360690913706A0913806B09139062FBFA3
:1026C000841B950BA60BB70B11E084369105A10571
:1026D000B10578F10E94950BDC01CB010296A11D9A
:1026E000B11D89839A83AB83BC8380913C01909117
:1026F0003D01865C994F20913B01422F50E02530EF
:1027000010F044E050E0BE016F5F7F4F0E946C31DB
:1027100082E090E00E94B42F182F882351F00E948D
:10272000780B60933206709333068093340690934F
:102730003506812F2896E3E00C946830EF92FF92E3
:102740001F93CF93DF9300D000D00F92CDB7DEB7A9
:102750007B0180E090E00E94B42F182F81111AC0F5
:1027600010E080914E0690914F06A0915006B091D6
:102770005106F70180839183A283B383812F0F9049
:102780000F900F900F900F90DF91CF911F91FF90BE
:10279000EF90089580912E01482F50E0882311F08A
:1027A00041E050E060912F0170913001665C794FFB
:1027B000CE0105960E946C3140915206509153060D
:1027C00060915406709155062FB7F89480913606A3
:1027D00090913706A0913806B09139062FBF841B1F
:1027E000950BA60BB70B84369105A105B10538F4FE
:1027F0008BE396E00E94A40C9D818917B9F181E0DA
:1028000090E00E94B42F882309F4AACF809136016A
:10281000482F50E0853010F044E050E060913701DF
:1028200070913801665C794FCE0101960E946C313F
:102830008BE396E00E94A40C9D81891391CF0E94A6
:10284000780B6093520670935306809354069093CE
:10285000550689819A81AB81BC8180934E06909305
:102860004F06A0935006B09351067BCF80913B0654
:1028700090913C06A0913D06B0913E0689839A83D3
:10288000AB83BC83E6CFCF92DF92EF92FF92CF93E0
:10289000DF93CDB7DEB72B970FB6F894DEBF0FBE30
:1028A000CDBF88E0E2EBF6E09E012F5F3F4FD901FC
:1028B00001900D928A95E1F74091AF069091B00694
:1028C0008091B10649879A878B87C0902E06D09059
:1028D0002F06E0903006F09031069FB7F8944091B3
:1028E00036065091370660913806709139069FBFC1
:1028F0004C195D096E097F09E22F443651056105C7
:10290000710510F4882311F18091440190914501E3
:10291000865C994F20914301422F50E02C3010F0FB
:102920004BE050E06E2F732F0E946C3183E090E0FB
:102930000E94B42F882369F00E94780B60932E06C2
:1029400070932F0680933006909331061092B10653
:1029500081E02B960FB6F894DEBF0FBECDBFDF919E
:10296000CF91FF90EF90DF90CF900895A0E0B0E07E
:10297000ECEBF4E10C943F30FC016280448081E098
:102980008483EBE5F7E07490EAEDF7E0E491C09121
:10299000B506C695C158D0E0CC0FDD1FCD2FDD2781
:1029A000812C75E0972EAA24AA94B12C55245A9410
:1029B000E719EE2EF12C80911601881638F00E944E
:1029C0006E0DCDB7DEB7E0E10C945B30C82CD12C96
:1029D00082E0861568F09C9CF0019D9CF00D11240E
:1029E000E85EFD4F8091B30680838091B4068183B9
:1029F000411023C09C9CF0019D9CF00D1124E85EC9
:102A0000FD4F13821282809114018C0D9D2D911D1A
:102A10009C01220F331F280F391F275D3C4F9C9CC0
:102A2000F0019D9CF00D1124E85EFD4F4281618113
:102A300080810E94B5098394BECF9C9C80019D9C9F
:102A4000100D1124085E1D4FF80183818823F1F0D9
:102A500081508383589EC0011124648170E00E94DC
:102A60002930FB01FF27E55AF84F8491E82FE71939
:102A70005E9EC0011124B7010E9429308091B506E5
:102A8000689FB0011124F8017283BDCF0E943931D3
:102A9000B5010E948E308C179D070CF0B4CFF2E088
:102AA000F61598F40E943931B5010E948E30F80174
:102AB00080830E9439312091B4062695622F70E000
:102AC0000E948E30280FF80121839C9CF0019D9C70
:102AD000F00D1124E85EFD4F12828091B506893C0D
:102AE00058F088EC9C9CF0019D9CF00D1124E85E50
:102AF000FD4F8483838387CF8431A0F784E1F2CFB5
:102B0000A0E0B0E0E6E8F5E10C9447307C016B0111
:102B100064E670E088E70E94752DEC0197FD12C015
:102B200000E010E0F701E00FF11F849164E670E02F
:102B30000E94E42DEC010F5F1F4FC016D10611F06B
:102B400097FFF0CF0E94662E81E0CD2B09F080E048
:102B5000CDB7DEB7E8E00C94633080912806882377
:102B600069F080912506882349F062E070E08EEAE2
:102B700090E00E9480158111109225060895A4E02E
:102B8000B0E0E5ECF5E10C944D3080912806882307
:102B9000F9F00E94780BDC01CB0180549B42AE4FD0
:102BA000BF4F8093210690932206A0932306B093F3
:102BB00024068091250681110BC062E070E08CEA4A
:102BC00090E00E948015882319F081E0809325060B
:102BD0002496E2E00C946930CF93DF93682F81E074
:102BE0006A3019F06D3031F480E00E946C16DF918C
:102BF000CF9108958091F3039091F40326E0FC01B6
:102C0000A8EFB1E001900D922A95E1F7603E08F43B
:102C100058C026E0FC0111922A95E9F7C091F30310
:102C2000D091F40346E050E0BE0188EF91E00E94AD
:102C30005F319E012D513440892B41F1C90145E09E
:102C4000969587954A95E1F741E050E0BA0102C0B8
:102C5000660F771F8A95E2F7CB0160911F0670918E
:102C60002006862B972BB9016B5F7F4FE5E07695A9
:102C70006795EA95E1F702C0440F551F6A95E2F7A0
:102C8000842B952B9093200680931F062A5F3F4F3D
:102C90004091F503642F70E0C9010E942930481B60
:102CA000463010F4240F311D211572E0370710F063
:102CB00020E030E0235E3B4F3093F4032093F30396
:102CC00096CFF6E06F9FB001112460557F4F46E02C
:102CD00050E00E944931A2CFCF93382FE091F30307
:102CE000F091F403ED51F4402091F503622F70E070
:102CF000CF010E942930281B822F332361F066E028
:102D00000E947430C82FC15010F4CF91089580E212
:102D10000E94EC15F8CF9F01280F311D211532407C
:102D200018F080E0E0E0F0E08E0F9F2F911D835EB1
:102D30009B4F9093F4038093F303E7CFCF93DF93FC
:102D4000EC01FE018491811103C0DF91CF910895C0
:102D50000E94EC152196F5CF0E949E1681E00E94FC
:102D60006C1608951F921FB61F9211248F939F9384
:102D7000AF93BF938091D603811113C08091360623
:102D800090913706A0913806B09139064196A11D61
:102D9000B11D8093360690933706A0933806B09302
:102DA0003906BF91AF919F918F911F901FBE1F90C9
:102DB00018952FB7F8948091360690913706A09118
:102DC0003806B09139062FBF089580915A0688239E
:102DD00019F00E94D91608950E94950BCB01089511
:102DE0006091B2066695669570E04BE050E087E032
:102DF00091E00E945231892B19F481E08093B00652
:102E00000E94E5169093EE038093ED038091B10646
:102E100084608093B10608959091B20690FF42C0FD
:102E2000882309F440C08B3208F03FC08F73282FED
:102E3000220F220F8091B2068370282B2093B206B6
:102E40008091B10681608093B106662381F0309154
:102E5000B3064091B4065091B5066091B6067091E4
:102E6000B7068091B8069091B9060E9484116091CE
:102E7000B2066695669570E04BE050E087E091E021
:102E80000E945231892B99F00E94590A81E0809367
:102E9000F00320E04091B5066091B4068091B3063E
:102EA0000E94FB11089581E0C2CF8AE2C0CF0E9448
:102EB000F016ECCF8091B206869586958F5F8B32A7
:102EC00008F081E061E00E940C1708959091B2062D
:102ED000969596958FEF890F913009F48AE261E01B
:102EE0000E940C1708959091B20690FF09C0969524
:102EF0009695981728F0961718F40E945A17089577
:102F000061E00E940C1708950E94D9162091A50631
:102F10003091A606232B222321F080932B06909339
:102F20002C062091A7063091A806232B222321F0FE
:102F30008093290690932A06E0917E06F0917F0601
:102F4000309749F082E08093A3060680F781E02D58
:102F500083EA96E0099508952091A5069091A80628
:102F60003091A706662309F45AC04091A606242B87
:102F7000292B232B222331F098E09093A10691E096
:102F80009093A0068D3C41F40E94750A8195809330
:102F9000A6060E9484170895E2E3E80FE231C8F71D
:102FA000F0E0EE5CFD4C0C94A2300E94750AEFCF6D
:102FB0000E94750A81958093A506EBCF0E94750A41
:102FC000FACF0E94950A8093A706E3CF0E94950A44
:102FD0008195F9CF0E94950A81958093A806D9CF53
:102FE0000E94950AFACF815D990B21E030E001C083
:102FF000220F8A95EAF78091A406822B8093A4067B
:10300000C8CF8091A20681608093A206C2CF809132
:10301000A2068260F9CF8091A2068460F5CF8D3C34
:1030200059F48091A60687FF0DC01092A6062223B0
:1030300059F41092A10608C08E3C81F48091A60636
:1030400018169CF3222381F08091A7069091A80680
:10305000892B81119ECF1092A0069BCF8F3C41F40B
:1030600027FFF0CF1092A5068091A6068823E0CF17
:10307000803D19F41216B4F3E5CF893D29F41316F7
:103080000CF71092A706DECF8A3D19F437FFDACF8E
:10309000F8CF8B3D29F497FFD5CF1092A806D2CF59
:1030A0008C3D19F41916CCF3CDCF9FE2980F9830D0
:1030B00090F4815D990B41E050E0BA0102C0660FC7
:1030C000771F8A95E2F7CB0180959091A40689231A
:1030D0008093A406B7CF8D3D31F48091A2068E7FF8
:1030E0008093A206AFCF8E3D21F48091A2068D7F02
:1030F000F7CF8F3D09F0A6CF8091A2068B7FF0CF4E
:10310000CF93C82F8823B1F18CEF8C0F813AA0F5B3
:1031100080914B01882301F18091C20687FF1CC07A
:10312000EC2FE695E695E695F0E0E453FE4F8281BC
:1031300090E04C2F477021E030E002C0220F331F97
:103140004A95E2F782239323892B79F08C2F0E94F2
:103150004B0B0E94211109C0E6ECF1E08191C817E8
:10316000A9F321E0EC3CF207C9F78C2F0E94170B62
:103170000E942111CF91089580E28C0F883068F46D
:10318000C77081E090E001C0880FCA95EAF7C0914E
:10319000BA06C82BC093BA06EBCF8BE58C0F8330F1
:1031A00038F42C2F2452330BC9010E94CB0AE2CFF2
:1031B000E8E5EC0FEB3150F4F0E0EE0FFF1FE457C1
:1031C000FE4F808191810E94F10AD4CF83E38C0F5E
:1031D000833180F661E08C2F0E94AC17CBCF88231F
:1031E00081F19CEF980F913A28F40E944B0B0E94BA
:1031F0002111089590E2980F983050F4877091E073
:1032000001C0990F8A95EAF7892F0E94DE06EFCF59
:103210009BE5980F933028F480E090E00E94CB0A61
:10322000089598E5980F9B3128F480E090E00E9483
:10323000F10A089593E3980F933118F460E00E9427
:10324000AC1708951092BA0680914B01882339F18A
:103250008091C20687FF23C0EEECF1E08EE1DF0132
:103260001D928A95E9F780E090E00E94CB0A80E009
:1032700090E00E94F10A1092C4060E94211186E09B
:10328000E3EAF6E0DF011D928A95E9F71092A106C4
:103290001092A0061092A2060E9484170895E6ECF0
:1032A000F1E086E0DCCF0E9422192FEF84E39CE05E
:1032B000215080409040E1F700C0000088E19AE092
:1032C0000FB6F894A895809360000FBE90936000AD
:1032D000FFCFAAE2B0E0EFE6F9E10C944C3083E0D6
:1032E00092E0FC0101962091F100208322E08B30D6
:1032F0009207B9F780910402893009F456C0C8F4E6
:10330000823009F4B2C0833009F481C0813071F198
:103310008091E80083FFE6C080910302909104024F
:103320009A3008F0DFC0E92FF0E0EC5BFD4C0C9424
:10333000A2308A3009F488C08B3051F780910302A3
:10334000813231F78091070290910802892B01F7B1
:103350008091E800877F8093E8000E94350C80917F
:10336000050280934B010E942219D2CF8091030263
:10337000813A71F68091E800877F8093E800809120
:10338000070290910802892B61F060E080E090E0F4
:1033900070E00E94DC0B8091E8008B778093E8005E
:1033A000B7CF68E08BE092E0F3CF809103028132E7
:1033B00009F0AECF8091070290910802029708F0C1
:1033C000A7CF8091E800877F8093E8008091E80094
:1033D00082FF18C09091F3008091F200029731F4BF
:1033E0008091F100813011F0863021F48091F1005C
:1033F000809313028091E8008B778093E8000E940D
:10340000350C86CF8091D8038111E0CF81CF809198
:103410000302813A09F07CCF809107029091080263
:10342000892B09F075CF8091E800877F8093E800B1
:103430008091E80080FFFCCF80914B018093F100E8
:103440008091E8008E77D9CF80910302813209F014
:103450005FCF8091E800877F8093E8000E94350C61
:10346000809106028093FF0153CF80910302813A3D
:1034700009F04ECF8091E800877F8093E80080912B
:10348000E80080FFFCCF8091FF01D8CF803889F021
:10349000823841F5809107028F70873018F580934C
:1034A000E9008091EB0085FB882780F91092E90004
:1034B00006C0809100029091D70391118260909193
:1034C000E800977F9093E8008093F1001092F1005C
:1034D0008091E8008E7723C0811116C0809105028B
:1034E000813011F18091E80083FF0AC08091E800EB
:1034F000877F8093E8008091EB0080628093EB00EF
:10350000AA96E3E00C946830823061F7809105025E
:10351000882389F01092E9008091E800877F8093EA
:10352000E8000E94350CDECF81E0933009F080E0A6
:103530008093D703EFCF809107028F702FEF280F72
:10354000263080F68093E9002091EB0020FFE2CF47
:10355000933031F48091EB0080628093EB00DACFFE
:103560009091EB0090619093EB0021E030E0A90195
:1035700002C0440F551F8A95E2F74093EA0010926B
:10358000EA008091EB008860E8CF8111ABCF109109
:1035900005021F778091E3008078812B8093E30000
:1035A0008091E800877F8093E8000E94350C80912D
:1035B000E80080FFFCCF8091E30080688093E30007
:1035C00083E0111101C082E08093D8038BCF805833
:1035D000823008F087CF40910502509106024C3DA1
:1035E00083E0580799F583E08A838AE289834FB79D
:1035F000F894DE01139620E03EE051E2E32FF0E084
:1036000050935700849120FF03C082958F703F5FD5
:103610008F708A30C8F0895C90E08D939D932F5F06
:10362000243161F74FBF8091E800877F8093E800E5
:103630006AE270E0CE0101960E94DC0B8091E80006
:103640008B778093E8004ECF805DE6CF2091070214
:1036500030910802852F99278330910509F160F494
:103660008130910509F472C0029709F03BCF8BE3DA
:1036700090E0EAEEF6E029C08132910509F45AC0E3
:10368000829709F02FCF2115310509F469C0213047
:10369000310509F027CF86EB90E0E0EFF5E015C0AB
:1036A000CA0199274130B1F18230910509F43AC03D
:1036B000892B09F017CFE7E5F7E0E4918E2F90E032
:1036C000E7E5F7E0009709F40DCF2091E800277FA8
:1036D0002093E8002091090230910A028217930793
:1036E00008F49C0140E02115310509F03EC041116C
:1036F0003CC08091E80082FDA1CF8091D80388234F
:1037000009F49CCF853009F499CF8091E80083FFBC
:10371000F0CF94CFE5E4F7E0E4918E2F90E0E5E47C
:10372000F7E0D0CFE7E3F7E0E4918E2F90E0E7E316
:10373000F7E0C8CF2115310571F02130310509F0CE
:10374000D1CE89E090E0E5E1F7E0BFCF82E190E003
:10375000E5E2F7E0BACF89E090E0ECEFF6E0B5CF34
:1037600084E490E0E6EAF6E0B0CF8091D8038823C5
:1037700009F464CF853009F461CF8091E80083FDBE
:103780005DCF8091E80082FDB4CF8091E80080FF9A
:10379000AACF9091F3008091F2002115310519F024
:1037A0008830910550F041E0089709F040E08091A1
:1037B000E8008E778093E80096CF44914093F10023
:1037C0003196215031090196E8CF803809F08ACE30
:1037D0008091E800877F8093E800809101028093C8
:1037E000F10076CE81117ECE10910502123008F0E4
:1037F00079CE8091E800877F8093E80010930102E2
:103800000E94350C112381F084E08093D80342E0BC
:1038100061EC81E00E94BD0C42E261EC82E00E941A
:10382000BD0C8091D8035ECE8091E30087FDECCF84
:1038300081E0EBCF9C014FB7F894809136069091D0
:103840003706A0913806B09139064FBF821B930B03
:1038500008950F931F93CF93DF93C62FD42F122F6A
:103860008823A9F06093AD060E94D9169093F701C2
:103870008093F601C77081E001C0880FCA95EAF70E
:103880000E947311DF91CF911F910F910895809144
:10389000AD06681338C08091F6019091F7010E943F
:1038A0001A1C883C910578F5CD130FC0812F0E941A
:1038B0008018812F0E94EF18D77081E001C0880F17
:1038C000DA95EAF70E947D11DDCFC77001E0802F05
:1038D00001C0880FCA95EAF70E947D1180E28D0F22
:1038E000883050F48D2F877001C0000F8A95EAF759
:1038F000802F0E947311DACF812F0E948018812FB0
:103900000E94EF18BFCFC77081E001C0880FCA9531
:10391000EAF7D8CFA0E0B0E0E0E9FCE10C94473052
:103920007C01FC018481882309F4AFC061E0C701F8
:103930000E944409EC01F7018581882309F4BEC483
:1039400091819093AC0690819093AB0690E2909316
:103950004C01D093AA06C093A9069E0130522115AE
:10396000304230F5F7018681803108F459C0FE01FC
:10397000FF27CD3308F46EC01092AD06CE019057EC
:10398000839708F4F9C0C6313CE7D30701F580916D
:10399000BA068A7A91E0811101C090E09093AE0658
:1039A0008111B9C189E20E94170B0E9421115DC0EB
:1039B0009E0130542115304150F5F7018681803148
:1039C000B0F61092AD06CA35ECE7DE0779F1CB35DB
:1039D000FCE7DF0708F032C2C1302CE7D20709F458
:1039E00045C2C3303CE7D30709F43AC2C115DC47EE
:1039F00009F069C00E942219FFEF24E33CE0F15076
:103A000020403040E1F700C000000E94C80B9E013A
:103A10003A9521153F4160F4FE01FF27CD33D0F0E8
:103A20001092AD06CA35FCE7DF07B1F681E015C29A
:103A30009E01205A32452032310508F442C0FE0171
:103A4000CD33D10508F030C4E857F44FE491E0934A
:103A50004C01B7CFE857F44FE491E0934C018CCF81
:103A600026E241EE61EE0E94291C8091C10687701A
:103A7000882359F0F7018581882339F08091C306A6
:103A800082FF03C082E00E94A006CDB7DEB7E8E067
:103A90000C94633027E245EE65EEE5CF26E241EE79
:103AA00060EEE1CF27E245EE64EEDDCF26E241EEA7
:103AB00062EED9CF27E245EE66EED5CF28E241E0AF
:103AC000EBCF1092AD06F70185810081118188232B
:103AD00009F4D0C1C8010E941009C82F682FC8017D
:103AE0000E942D06B8018C2F0E94E6060E94F7075F
:103AF000D82FC92FF701D580C680C2948FE0C82285
:103B00008091C10687708823F9F00D2DDD20E9F042
:103B1000892F807F803461F080E28D0F8830A0F0A3
:103B2000892F807E803221F4D23070F0CC2061F079
:103B30008091C30682FF08C082E00E94A0068091A7
:103B4000C106877001E0811100E0EC2FE295EF7073
:103B5000C03C08F0F5C1F0E0E25BFD4C0C94A230F3
:103B60001092AD06CE019057839730F0C6319CE796
:103B7000D90709F028CF0BCF84E090E00E94833171
:103B80009093C3068093C206FE01E150F047E232F3
:103B9000F10520F4E65AFD4C0C94A2308091C20647
:103BA00081608093C2066091C2067091C30684E072
:103BB00090E00E94B7310E94221957CF8091C3062E
:103BC00088608093C306EFCF8091C2068260E9CF00
:103BD0008091C2068460E5CF8091C2068860E1CF03
:103BE0008091C3068160EDCF8091C3068260E9CFEA
:103BF0008091C2068061D5CF8091C2068062D1CF0C
:103C00008091C2068064CDCF0E9422198091C206A5
:103C10008068C7CF8091C2068C60C3CF8091C306F5
:103C20008360CFCF8091C2068E7FBBCF8091C306C9
:103C3000877FC7CF8091C2068D7FB3CF8091C206A8
:103C40008B7FAFCF8091C206877FABCF8091C306B9
:103C50008E7FB7CF8091C3068D7FB3CF8091C20690
:103C60008F7E9FCF8091C2068F7D9BCF8091C206B1
:103C70008F7B97CF0E9422198091C2068F7791CFB8
:103C80008091C206837F8DCF8091C3068C7F99CFB0
:103C90008091C20682FB992790F921E0922790FB40
:103CA00082F990FB83F97DCF8091C306982F909580
:103CB00091708E7F892B90FB81F983CF9091C20602
:103CC000892F8F7B96FF80646CCF0E942219909180
:103CD000C206892F97FB87F9805863CF61E08EE099
:103CE00090E00E9499315FCF60E0F9CF9091C206D9
:103CF000892F8F7E94FF806154CF9091C206892FC7
:103D00008E7F90FF81604DCF9091C306892F877F72
:103D100093FF886056CF85E346CE85E30E944B0B28
:103D200044CE8091BA068272FE01E052F847E53136
:103D3000F10508F0C8CEE458FD4C0C94A2308091F7
:103D4000B20680FF1EC0282F2E7F2093B20630912E
:103D5000B3064091B4065091B5066091B6067091D5
:103D6000B7068091B8069091B9060E9484110E940E
:103D7000590A8091B10681608093B1060E946E0D50
:103D800074CE81608093B20661E0869586950E942C
:103D90000C176BCE46E657E16AE577E10E94600AB0
:103DA00064CE4AE557E166E677E1F8CF49E952E1AA
:103DB0006FE872E1F3CF4FE852E169E972E1EECFCB
:103DC00040EB52E163EA72E1E9CF43EA52E160EB92
:103DD00072E1E4CF4AEC52E16DEB72E1DFCF4DEBE3
:103DE00052E16AEC72E1DACF41EE51E167EC71E148
:103DF000D5CF47EC51E161EE71E1D0CF61E081E0D8
:103E0000C6CF65E082E00E9473172FCE68E086E09F
:103E1000FACF6EE089E0F7CF64E18FE0F4CF67E19D
:103E200085E1F1CF61E088E1B2CF62E289E1EBCFD9
:103E300061E083E2ACCF6AE285E2E5CFCB359CE777
:103E4000D907B1F0CC35DC4709F03DCE8091C306EF
:103E500082FB882780F991E089270E940A1133CEDE
:103E60006FEF7FEF80E090E00E94B7310E9453191E
:103E700080E0F3CFC8010E946306C82F33CE1C2F09
:103E80001F70C03110F01295107FDD20B9F01123A2
:103E900069F080E28D0F883010F0D11109C0809157
:103EA000BA06812B8093BA060E9421118D2F40C043
:103EB0008091C406812B8093C406F6CF8D2F0E947B
:103EC000EF181123E9F180E28D0F883010F0D11145
:103ED00004C0812F0E94DE0606C010958091C406A2
:103EE00081238093C4060E9421112AC01C2F1F70B9
:103EF000C07FC03211F01295107FDD2349F0D13020
:103F000009F46BC0DD2009F477C0CC20C9F1CECF15
:103F10008091C30682FD30C0DD2069F0112339F0A5
:103F20008091BA06812B8093BA060E94211180E00D
:103F30000E94801805C080E00E94EF181111C9CFBF
:103F40000023A9F08091C10680FD11C0F701158200
:103F50008695869586950E940B06C7010E948A1C4D
:103F60008091C1068695869586950E941B0660E025
:103F7000C7010E94440989CDDD2099F0C11004C019
:103F8000812F0E947311DCCFF1E0CF12D9CF809145
:103F9000BB06912F9823191799F2812B8093BB06AA
:103FA000CFCFC110CDCF812F0E947D119091BB0644
:103FB000812F8923882329F0812F8095892380935D
:103FC000BB068091BC06912F9823992309F4B8CFA2
:103FD000109518231093BC06B3CFDD2029F025E0FF
:103FE0002C1508F4ADCFCCCF34E03C1508F4A8CFA5
:103FF000812F0E947D11A4CFCC20D1F3D93349F475
:104000008FEF97EEE3E081509040E040E1F700C091
:1040100000008D2F0E94EF1893CF8C2F86958695E8
:104020008370882369F0813009F08ACF8D2F9C2F0F
:104030009370D11002C080E090E00E94F10A80CF1E
:104040008D2F9C2F9370D11002C080E090E00E94D1
:10405000CB0A76CF6D2D8D2F0E94AC1771CF8C2F90
:104060008370811142C0D1102FC04D2F42954695CB
:104070004770440F440F2D2F2F7030E0042E02C0E4
:10408000220F331F0A94E2F780E090E0D4FF09C0CA
:104090008FE090E002C0880F991F4A95E2F7809563
:1040A0009095C695C695C370C230B1F0C33089F003
:1040B0004091BD065091BE06C13049F0822B932B32
:1040C000842395230E9401060E94BA0A39CF242B2B
:1040D000352B822B932BF6CF822B932B2091BD0671
:1040E0003091BE0682279327EDCFDD2091F1C0FFEE
:1040F000EBCF4D2F429546954770440F440F2D2F1F
:104100002F7030E0042E02C0220F331F0A94E2F712
:1041100080E090E0D4FF09C08FE090E002C0880FFB
:10412000991F4A95E2F780959095C695C695C370FC
:10413000C230C1F0C33099F04091BF065091C00623
:10414000C13059F0822B932B842395230E940606BD
:10415000BBCF823008F4B8CFCCCF242B352B822BA9
:10416000932BF4CF822B932B2091BF063091C00666
:1041700082279327EBCFCF70DD2039F08C2F0E9460
:104180000B068D2F0E9473119FCF8D2F0E947D11E2
:104190008C2F0E941B0698CFD23FA1F178F4D03F1C
:1041A000C1F0D13F09F447C0DD2009F46BC0CC2039
:1041B00009F465C08D2F0E94801886CFD33F49F146
:1041C000D43FA9F1D110F3CFC1106AC08C2F8F71E9
:1041D000E0CFDD20A1F0F4E0FC1508F475CFCF713D
:1041E00081E090E09C0102C0220F331FCA95E2F7E4
:1041F0008091BF069091C00682279327A7CF35E014
:10420000C316EBCF8C2F8F71D110C3CF0E940B063A
:104210005BCF80E090E0DD2009F498CFCF7181E0A2
:1042200090E002C0880F991FCA95E2F78FCF809166
:10423000C30682FD06C08C2F8F71DD2009F4A9CF43
:10424000E5CFDD2089F0CF718C2F0E940B06809185
:10425000C30682FF07C0E8E0CE9FC001112483603F
:104260008093C1068C2FD2CF81E00E94A006F1E09E
:10427000FC1508F029CF82E00E94A00625CF8C2FE4
:104280008F71C4CFCC2009F4A1CFD93349F42FEFDB
:1042900037EE83E0215030408040E1F700C000005D
:1042A0008D2F0E94EF1810CFE851FC47E730F10541
:1042B00008F056CCEF56FD4C0C94A230FE01E851AC
:1042C000FC47E730F105B0F3C6318CE7D80709F0B9
:1042D00028CD8091AE06811120CD89E21FCD80913D
:1042E0000507803178F480910407882359F0E09124
:1042F000C6062091C506309100074091FF0657E0A1
:104300002E1301C008956E2F70E05E9FF0011124FE
:10431000DF01A953B94F14968C911497882361F14A
:1043200011968C911197831327C08C91841324C00C
:1043300015968C91159781111FC012968D919C91A5
:10434000A0910107B09102078A1B9B0B883C910545
:1043500098F4809105078F70806180930507E3537F
:10436000F94F80818F70806180838FEF96E00E948B
:104370008A1C0E9496060895FB013196E770C0CF13
:10438000ADE0B0E0E6ECF1E20C9442308C0186E066
:10439000F801DE01189601900D928A95E1F7F80177
:1043A000E080F580A280B380C4808FEF882E86E005
:1043B000982E70900307711020C0CC20D9F0FF20F8
:1043C00009F419C1C8010E947309882309F413C1B3
:1043D00087E0F801D40101900D928A95E1F7F1E0B0
:1043E000CF1206C08091FF06909100070E946409D9
:1043F0000E946F21FF24F39451C0D0900407809154
:104400000107909102079501281B390BDD2009F463
:10441000BAC0283C310508F090C0CC2059F39091E7
:104420000007C18080910507803108F058C0C9128B
:1044300014C09091FF069E1110C0F1104AC08F70F9
:104440008061809305078FEF96E00E948A1C80911F
:104450000507F8018683F12C21C0F1103AC040E035
:104460006C2D8E2D0E944F0D40E06C2D8E2D0E94E4
:104470004F0DF82E8111EFCF888599850E94640930
:10448000292F22952F70903470F49F702230A0F065
:104490009923B1F0F8019681903190F48F2D2D96EB
:1044A000EDE00C945E302A5F2F70223068F0C80176
:1044B0000E948A1CFD2CF2CF992311F0882371F3FE
:1044C000805E883058F3F3CF803F40F3815F8230C5
:1044D000F9CF80910507816080930507BCCFC91291
:1044E00007C09091FF069E1103C0FF2009F46CC025
:1044F000C8010E947309882309F47DC0FF2009F4D4
:104500007AC080910507803278F02091FF063091C3
:1045100000073A832983BC82AB827D821E828F830F
:10452000CE0101960E948A1C87E0F801AFEFB6E049
:1045300001900D928A95E1F75BCF8091050780315C
:1045400050F48FEF96E00E948A1C87E0F4011192EC
:104550008A95E9F780CFCC2009F44CCF2091000751
:1045600091812913C5CF9091FF069E11C1CFF11003
:10457000BFCF8683C8010E948A1C87E0F401119294
:104580008A95E9F737CF283C3105F8F6CC2009F4B5
:1045900031CFFF2081F1909100078181981321C0D4
:1045A0008091FF068E111DC08091050780FD10C00F
:1045B000803170F08683807F803F39F08681982F2C
:1045C000907F905F8F70892B8683C8010E948A1C20
:1045D00087E0F801AFEFB6E001900D928A95E1F720
:1045E00009CFC8010E94730981119ECF80910507F0
:1045F000816080930507C8010E948A1CFBCEABE155
:10460000B0E0E5E0F3E20C944C304E8B5F8B688FAA
:10461000798F8A8F9B8F91111092C4061D8A86E034
:10462000FE017696DE011F9601900D928A95E1F7C4
:104630008B89882329F061E0CE010F960E944409FE
:1046400087E0FE013F96DE01189601900D928A9553
:10465000E1F7CE0108960E94C02181112BC087E0AE
:10466000FE013896DE01119601900D928A95E1F7D0
:104670002091C5064091C6068C858823D9F030E08C
:10468000C90101968770992750E084179507E9F0D2
:1046900097E0929FD001939FB00D1124A953B94F79
:1046A000FE01319601900D929A95E1F78093C5062F
:1046B0000E94960617E08091C6069091C506891360
:1046C00012C06B96E3E00C9468300E94221910929D
:1046D000C5061092C60687E0EFEFF6E0DF011D92F7
:1046E0008A95E9F7E7CF189FC00111248953994FA4
:1046F0000E94C021882329F38091C60690E001968C
:10470000877099278093C606D6CFA6E0B0E0EBE885
:10471000F3E20C944B300E94D9168C0180915C0618
:1047200090915D068017910779F019821A820E9494
:10473000D916BC0149815A8180E090E00E94FF2295
:1047400010935D0600935C062696E4E00C946730B7
:10475000A7E1B0E0EEEAF3E20C9442301D861C863D
:10476000FE013E9686E0DF011D928A95E9F788E713
:10477000A82E81E0B82E8E01045F1F4F4801EE2461
:10478000E394F12C22E8C22E21E0D22EF501819192
:104790005F018F3F09F441C0F894E82FE295EF7074
:1047A000F0E021A18F70A70102C0440F551F8A9528
:1047B000E2F7CA01922F982B91A392A180958923A9
:1047C00082A3789400C0ECE7F1E031E0712C2191F4
:1047D0002F3F09F48DC0A22FA295AF70A05EB0E06C
:1047E0008C9190E02F7002C0959587952A95E2F7FD
:1047F000817081117DC0832F782A330FCE16DF069A
:1048000031F7F501319780818F3F11F00E949B09AC
:1048100050EA5A95F1F7D8017C920F5F1F4FBCE721
:10482000AB16B1E0BB0609F0B1CF48E050E0B401EF
:104830008BEC93E00E945F310091D40310E00752AB
:104840001C4F892B09F456C088E0F401ABECB3E0AF
:1048500001900D928A95E1F781E08093F5010E9425
:10486000D9169093F4018093F30180915A0688231E
:1048700009F499C01A8219821C821B828091FE0160
:104880008A3008F059C04EE953E1FE0131967F01AC
:10489000BF01C8010E94D0106701882309F471C0CC
:1048A00047E453E1B701C8010E94D010882309F4FE
:1048B00068C043E454E1B701C8010E94D0108823C6
:1048C00009F45FC01092FE018091D30390E044E0B0
:1048D00050E0B60187529C4F0E945F3121E0209347
:1048E000F201892B09F03FC06796EDE00C945E3031
:1048F00080E082CF8091F501882309F4B6CF8091C2
:10490000F3019091F4010E941A1C059708F4ADCFB1
:1049100044E050E06BEC73E0C8010E945F31892BEA
:1049200041F084E0EBECF3E0D80101900D928A9520
:10493000E1F71092F50199CF8091F0019091F1018A
:104940000E941A1C843F914008F09DCF8091F20193
:10495000882351F284E0FE013196DF011D928A9591
:10496000E9F71092F201E091D303F0E0E752FC4F37
:1049700089819A81AB81BC8180839183A283B38337
:10498000B3CF8091FE018F3F39F40E94D9169093E6
:10499000F1018093F001DACF8F5F8093FE018A30BE
:1049A00008F492CFF2CFF80180819181A281B38186
:1049B00080933B0690933C06A0933D06B0933E0641
:1049C0008BE396E00E94A40C80933A06C0903F06C9
:1049D000D0904006E0904106F09042068091EC01B4
:1049E0009091ED01A091EE01B091EF01C816D906AA
:1049F000EA06FB06B1F0C092EC01D092ED01E09224
:104A0000EE01F092EF010E94780BC61AD70AE80A6D
:104A1000F90AC0925606D0925706E0925806F092D4
:104A200059068BE0E3E4F6E0DE01119601900D9269
:104A30008A95E1F78091430686958695F090440625
:104A4000E0904506D090460600914C0610914D0628
:104A500010924D06112309F447CF10FF0BC0298196
:104A60009091B20620FF1AC091609093B20660E068
:104A70000E940C1711FF06C020E04D2D6E2D8F2DCA
:104A80000E94FB1112FF04C00023A9F00E94F0163F
:104A900013FF2ACF81E08093F00326CF9E7F90936F
:104AA000B2060E94590A8091B10681608093B106D6
:104AB0000E946E0DDFCF0E94590AEACFCDB7DEB754
:104AC00060970FB6F894DEBF0FBECDBF85B7806884
:104AD00085BF85B7806885BF84B7877F84BF0FB6E1
:104AE000F894A8958091600088618093600010928E
:104AF00060000FBE80E890E00FB6F89480936100EC
:104B0000909361000FBE89E999E09093C30180936F
:104B1000C2010E94850C0E94F40C8091E200846026
:104B20008093E20078948091D803882399F0809153
:104B3000E9001091EC001795112717958F70182B2D
:104B40001092E9008091E80083FD0E9469191F70AE
:104B50001093E90082E084BD93E095BD9AEF97BD84
:104B600080936E00109256061092570610925806C7
:104B7000109259068091D80080618093D8002AE174
:104B80002A95F1F700C08091D90080FF7EC081E0B6
:104B900080935A0680935B0680931701109212014E
:104BA0008BE1809313010E94C62E809117018091A2
:104BB000170191E08927880F880F8093D40394E030
:104BC000981B9093D30384E90E949B0986E60E9478
:104BD0009B0987E90E949B0986EC0E949B090CE7D0
:104BE00011E052E8E52E51E0F52ED8018D918D01AE
:104BF0008F3F11F00E949B09E016F106B1F788E0A3
:104C0000E9EDF3E0DF01882E1D928A94E9F7EBECE1
:104C1000F3E0DF011D928A95E9F780E090E00E94C1
:104C20008331863E9E4F11F00E94D71282E090E0C1
:104C30000E9475318093E10384E090E00E9483310B
:104C40009093C3068093C2060E94A823EFEFF6E775
:104C500021E0E150F0402040E1F700C000000E9458
:104C6000A823E0915B0611E0E127EE0FEE0FF0E0E4
:104C7000E752FC4F808181FF18C06FEF7FEF80E02B
:104C800090E00E94B7310E94C80B0E94850C1092E0
:104C9000D80310925A0610925B06109217018BE10E
:104CA000809312018093130180CF83E090E00E94F3
:104CB000753190E00E94010680915A068127880F85
:104CC00080931D0680E88093F5030E946F2D6BE0B2
:104CD00070E087E799E00E948015882309F443C0BB
:104CE00080911D0665E070E081FDC1C182E799E019
:104CF0000E9480158823B9F16DE070E080E699E0AC
:104D00000E948015882379F10E94780B6F83788741
:104D100089879A87DC01CB0180549B42AE4FBF4FFD
:104D20008093210690932206A0932306B093240635
:104D3000EDE1F4E080E092E0DF019C011D92215062
:104D40003040E1F7F093F403E093F3038FEF9FEF2C
:104D50009093200680931F0681E08093280680931D
:104D6000250610921E068091D503811193C080E024
:104D700090E00E948331863E9E4F21F00E94D71220
:104D80000E94AA1188E090E00E947D316B017C01B5
:104D900084E290E00E947531282F30E040E050E03E
:104DA00060E070E080E090E000E20E94B730E22F27
:104DB000A32EB42EB52FA62FF72F9701860140E022
:104DC00050E0BA01EC29A12AB22AB32BA42BF52B6F
:104DD000862B972BE093B206A092B306B092B4064E
:104DE000B093B506A093B606F093B7068093B806C5
:104DF0009093B9068091B10683608093B106E43048
:104E0000C8F50E94AA1188E090E00E947D316B01F4
:104E10007C0184E290E00E947531282F30E040E070
:104E200050E060E070E080E090E000E20E94B73087
:104E30005901B42FA52FF62FE72F9701860140E0E7
:104E400050E0BA01AC28B12AB22BA32BF42BE52BEE
:104E5000862B972BA092B206B092B306B093B406FD
:104E6000A093B506F093B606E093B7068093B80614
:104E70009093B9060E94440A0E94590A8091B20692
:104E800080FF05C060E0869586950E940C1781E042
:104E90008093D50380915A06811102C00E94C92EC9
:104EA00088E191E090937F0680937E06CE01019683
:104EB0004AE0442E512C612C712C8F87988B809165
:104EC000D803853049F48091D803853009F4D2C0E5
:104ED0000E9422190E94BA0A0E94A82302EE13E03F
:104EE00039EDE32E33E0F32ED701F80191918D9146
:104EF0002AEE822E23E0922E8E169F0609F40EC112
:104F00009817A1F380905A06D12CD701CD907D013E
:104F1000F80191908F019C1441F19C24B12CAA249A
:104F2000A3948A2D89218823C1F08820B1F0B98209
:104F3000DA820E94D9169C838B83F1E0FD8391E095
:104F40008A2D8C21811101C090E09E8349815A8174
:104F50006B817C818D810E94FF22B394AA0C26E094
:104F6000B212DFCFF8013197C082D39438E0D31268
:104F7000CCCF0E94950BD090B006D11028C1D09014
:104F80002806D110D8C00E94BF1586E0E3EAF6E0FB
:104F9000AF85B88901900D928A95E1F7C090A4067B
:104FA0000091A5061091A606E090A706F090A8062D
:104FB0001092A5061092A6061092A7061092A806B7
:104FC000812F802B882379F080912B0690912C06DD
:104FD0000E941A1C9C018091A10681113AC32B30BA
:104FE000310508F03CC38F2D8E29882379F08091FC
:104FF000290690912A060E941A1C9C018091A00605
:10500000811165C32B30310508F067C38091A40678
:10501000C81216C08091A506882311F0801310C015
:105020009091A606992311F019130AC02091A806A1
:10503000211106C02091A706211102C0892B8111E0
:105040000E94841786E0EF85F889A3EAB6E0019014
:105050000D928A95E1F70E94BA0A90912D06891760
:1050600009F42DCF80932D060E94780B28CF8DE672
:1050700099E03ECE8091D803843031F10E94AD1585
:105080001092D60348E150E060E40FB6F894A8957A
:10509000409360000FBE6093600083B7817F84609F
:1050A00083BF83B7816083BF7894889583B78E7FF1
:1050B00083BF0FB6F894A8958091600088618093B3
:1050C0006000109260000FBE8091D703882309F41E
:1050D000FACE0E94A823E9EDF3E081EE93E021915E
:1050E000211104C08E179F07D1F7EDCE80E189BD55
:1050F00082E189BD09B400FEFDCF8091D8008F7D8B
:105100008093D8008091E00082608093E0008091DD
:10511000E00081FDFCCF0E942219D5CE9813F2CE7B
:105120000E948523D090B006D11050C080912806EF
:10513000882309F42ACF80912606909127060E94A1
:105140001A1CC29708F445C30E94D91690932706EB
:10515000809326068DE194E09093F4038093F3030B
:1051600080915A06882309F4ADC180E09AE00E943C
:105170009E162091BF063091C006832F9927009775
:1051800009F403C19C0188E0A901B4E05695479554
:10519000BA95E1F74115510511F08C5F9A01A9010B
:1051A0005695479556954795452B09F4F0C08E5F67
:1051B000F3E036952795FA95E1F7232B09F4F3C030
:1051C000823009F4F6C08FED99E0C4C2D12C8091F1
:1051D000AF06E091B206E695E695E81BE093EF0393
:1051E000823009F062C0F0E0ED56F64FE4910E2FE8
:1051F00010E0F2E4EF2EF0E1FF2E8091F00388231F
:1052000061F01092F0030E94E5169093EE038093F4
:10521000ED031092F2031092F1030E94E5169C0137
:105220008091ED039091EE03A901481B590B4F3F6C
:105230005F4798F54091EC034423B1F01092EC03E2
:105240004091EA035091EB03241B350B2F3F3F475E
:1052500058F4405D5A485093EB034093EA03209181
:10526000B10628602093B106A090F103B090F2033C
:10527000800F911F9093EE038093ED038DEE93E0EA
:10528000F70109958091F1039091F203892B29F49C
:10529000AB2819F081E08093EC03809128068111FE
:1052A0004ACFDD2009F471CE6ECE08E210E092E024
:1052B000E92E9FE0F92E883109F49FCFE0F48F307A
:1052C00009F440C058F4863031F1893079F100EDAD
:1052D00017E0E4EBEE2EE9E0FE2E8FCF8531B9F733
:1052E000F0E0E957F64FE4910E2F10E042E8E42E8B
:1052F0004EE0F42E82CF843209F440C0853271F141
:10530000833229F7E5E8F9E00591149130EFE32EB7
:105310003FE0F32E72CFF0E0E057F64FE4910E2F0E
:1053200010E076E5E72E70E1F72E67CFE695F0E026
:10533000E357F64FE4910E2F10E060ECE62E6DE09F
:10534000F62E5BCFE695F0E0E657F64FE4910E2F90
:1053500010E05BEFE52E5DE0F52E4FCF8E2F63E082
:105360000E947430E92FF0E0EE57F64FE4910E2FD3
:1053700010E026EBE22E24E1F22E3FCF04EF11E005
:1053800086E9E82E8FE0F82E38CF80E0FDCE369506
:105390002795232B09F4D9C18F5F833008F013CFF1
:1053A00082EF99E0D7C1823009F00DCF8CEE99E001
:1053B000D1C185EE99E0CEC1909323018093220163
:1053C00020E22093FC034C01A12CB12C8F82988603
:1053D000A986BA861092FB037BEFE72E73E0F72EC7
:1053E000C501B401A30192010E94FF316B877C8744
:1053F0008D879E87862F805D8B849C84AD84BE8440
:1054000000E010E089288A288B2861F56AEFE62EF3
:1054100063E0F62E8093FA032F83388749875A87F3
:105420006F81788589859A85A30192010E94FF3159
:105430006B877C878D879E87862F805D2B853C853B
:105440004D855E8501E010E0232B242B252B51F4A4
:1054500080E28F809884A984BA8489288A288B283E
:1054600009F080E3D7018E937D016F81788589856E
:105470009A85A30192010E94FF312F8338874987C3
:105480005A870F5F1F4F0530110509F488C1CA0103
:10549000B901A30192010E94FF316B877C878D8740
:1054A0009E87862F805D8B849C84AD84BE8481140E
:1054B0009104A104B104CBCFD8018D918D010E943C
:1054C000EC157BC187E999E00E949E1682C18F5F2F
:1054D000082F10E04B01082E02C0880C991C0A947A
:1054E000E2F7A40142235323452B89F390911D0633
:1054F00090FD43C098013695279536952795922FB4
:105500008295880F80763FE1380F809326012093A3
:1055100029013093270190932A0124E630E047E0E7
:1055200050E064E271E088E70E94142E892B09F0B4
:105530006BC1A80195E0440F551F9A95E1F7809142
:105540001D0680FD22C0435E5B4F04E610E020E2B2
:1055500030E060E488E70E943B2E892B09F054C1BB
:105560008094909480911F06909120068821992123
:105570009093200680931F0647C1880F880F880FDD
:1055800037E0380F20E093E0C0CFEDEFF3E080E2AA
:10559000DF011D928A95E9F7E6E8F1E0FC87EB87E9
:1055A00062E871E087E0E82EBB24B394EB85FC85CC
:1055B000A191FC87EB87FB018191BF01840F952F9F
:1055C000911D9C01235E3B4F38872F83EA2FF0E02B
:1055D000E350FC4F80E090E0CE2CC81AFB2C082E44
:1055E00001C0FF0C0A94EAF72F80388400E0D10153
:1055F0001D911D011F212C2D201B277030E0B12F84
:10560000022E01C0BB0F0A94EAF7319521953109AA
:105610002770332701C016952A95EAF71B2B2081A6
:10562000122B10830F5F083011F7019631968830E6
:10563000910591F6EAE8F1E02B853C85E217F30746
:1056400009F0B4CF04E610E020E230E04DEF53E083
:1056500080CF2531310508F4C6CC8F3F19F08F5F1C
:105660008093A106002359F00E94750A9FEF10163F
:105670000CF491E0899F802D11248093A5061123BD
:1056800059F00E94750A91E011160CF09FEF899F66
:10569000802D11248093A6068091A506882309F405
:1056A000A2CCD090A606DD2009F49DCC0E94670A0A
:1056B000811101C081E08093A5068D2D0E94670AAB
:1056C000882319F08093A6068ECC81E0FBCF21358C
:1056D000310508F49BCC8F3F19F08F5F8093A006B3
:1056E000EE2059F00E94950A9FEF1E140CF491E0F1
:1056F000899F802D11248093A706FF2059F00E94D6
:10570000950A91E01F140CF09FEF899F802D1124C2
:105710008093A8068091A706882309F477CCF0909F
:10572000A806FF2009F472CC0E94670A811101C00B
:1057300081E08093A7068F2D0E94670A882319F0C5
:105740008093A80663CC81E0FBCF833008F03BCD8B
:1057500088EF99E00E94AC168091AC06805D0E94B3
:10576000EC158DED99E00E949E168091AB06805D50
:105770000E94EC1589ED99E00E949E168091A90681
:105780009091AA062091220130912301821793075C
:1057900009F012CE2091FC03203209F00DCEE6EF85
:1057A000F3E08F0181918032E1F3F8010190002054
:1057B000E9F79F012150310979010E151F0508F401
:1057C0007BCE87ED99E00E949E1680914C010E944D
:1057D000EC1580911F0690912006892BA9F08091ED
:1057E0002806882389F080911E0681110DC00E9431
:1057F000BF1520911F063091200680E061E070E027
:105800002115310509F064CE80912506882309F41D
:1058100048CD0E94780B6F83788789879A8780911B
:10582000210690912206A0912306B09124068F8034
:105830009884A984BA84881A990AAA0ABB0A2FEF05
:1058400082169206A2062FE7B20608F02ACD0E9421
:10585000AD1527CD78941F921FB61F9211248F93F8
:105860009F93AF93BF938091360690913706A09196
:105870003806B09139060196A11DB11D80933606F8
:1058800090933706A0933806B0933906BF91AF9135
:105890009F918F911F901FBE1F9018951F920F927E
:1058A0000FB60F9211242F933F934F935F936F93F3
:1058B0007F938F939F93AF93BF93EF93FF938091C9
:1058C000E10082FF09C08091E20082FF05C0809163
:1058D000E1008B7F8093E1008091DA0080FF24C09B
:1058E0008091D80080FF20C08091DA008E7F809365
:1058F000DA008091D90080FF9BC080E189BD82E100
:1059000089BD09B400FEFDCF81E08093D80380916A
:105910000202811109C00E94850C0E94F40C809142
:10592000E20084608093E2008091E10080FF17C074
:105930008091E20080FF13C08091E2008E7F80930F
:10594000E2008091E20080618093E2008091D800C3
:1059500080628093D80019BC85E08093D803809141
:10596000E10084FF29C08091E20084FF25C080E12E
:1059700089BD82E189BD09B400FEFDCF8091D800C8
:105980008F7D8093D8008091E1008F7E8093E1002D
:105990008091E2008F7E8093E2008091E20081603E
:1059A0008093E20080910102882309F447C084E0DB
:1059B0008093D8038091D8038091E10083FF27C0B2
:1059C0008091E20083FF23C08091E100877F809374
:1059D000E10082E08093D803109201028091E100FF
:1059E0008E7F8093E1008091E2008E7F8093E200C1
:1059F0008091E20080618093E20042E060E080E01C
:105A00000E94BD0C8091F00088608093F000FF91AF
:105A1000EF91BF91AF919F918F917F916F915F9126
:105A20004F913F912F910F900FBE0F901F9018959F
:105A300019BC1092D8031092020276CF8091E30035
:105A400087FF02C083E0B4CF81E0B2CF1F920F92F4
:105A50000FB60F921124FF920F931F932F933F9332
:105A60004F935F936F937F938F939F93AF93BF9366
:105A7000CF93DF93EF93FF9309EE10E0F80180815D
:105A8000C091EC00C795CC27C7958F70FC2EF82AE3
:105A90001082C0EFD0E08881877F888378940E944D
:105AA0006919F8011082888188608883CF2DCF70B2
:105AB000C083FF91EF91DF91CF91BF91AF919F9103
:105AC0008F917F916F915F914F913F912F911F9196
:105AD0000F91FF900F900FBE0F901F90189510928E
